{
  "contractName": "SolnSquareVerifier",
  "abi": [
    {
      "inputs": [
        {
          "internalType": "address",
          "name": "contractAddress",
          "type": "address"
        }
      ],
      "stateMutability": "nonpayable",
      "type": "constructor"
    },
    {
      "anonymous": false,
      "inputs": [
        {
          "indexed": true,
          "internalType": "address",
          "name": "owner",
          "type": "address"
        },
        {
          "indexed": true,
          "internalType": "address",
          "name": "approved",
          "type": "address"
        },
        {
          "indexed": true,
          "internalType": "uint256",
          "name": "tokenId",
          "type": "uint256"
        }
      ],
      "name": "Approval",
      "type": "event"
    },
    {
      "anonymous": false,
      "inputs": [
        {
          "indexed": true,
          "internalType": "address",
          "name": "owner",
          "type": "address"
        },
        {
          "indexed": true,
          "internalType": "address",
          "name": "operator",
          "type": "address"
        },
        {
          "indexed": false,
          "internalType": "bool",
          "name": "approved",
          "type": "bool"
        }
      ],
      "name": "ApprovalForAll",
      "type": "event"
    },
    {
      "anonymous": false,
      "inputs": [
        {
          "indexed": true,
          "internalType": "address",
          "name": "previousOwner",
          "type": "address"
        },
        {
          "indexed": true,
          "internalType": "address",
          "name": "newOwner",
          "type": "address"
        }
      ],
      "name": "OwnershipTransferred",
      "type": "event"
    },
    {
      "anonymous": false,
      "inputs": [],
      "name": "Paused",
      "type": "event"
    },
    {
      "anonymous": false,
      "inputs": [
        {
          "indexed": false,
          "internalType": "address",
          "name": "addr",
          "type": "address"
        },
        {
          "indexed": false,
          "internalType": "uint256",
          "name": "index",
          "type": "uint256"
        }
      ],
      "name": "SolutionAdded",
      "type": "event"
    },
    {
      "anonymous": false,
      "inputs": [
        {
          "indexed": true,
          "internalType": "address",
          "name": "from",
          "type": "address"
        },
        {
          "indexed": true,
          "internalType": "address",
          "name": "to",
          "type": "address"
        },
        {
          "indexed": true,
          "internalType": "uint256",
          "name": "tokenId",
          "type": "uint256"
        }
      ],
      "name": "Transfer",
      "type": "event"
    },
    {
      "anonymous": false,
      "inputs": [],
      "name": "Unpaused",
      "type": "event"
    },
    {
      "inputs": [
        {
          "internalType": "address",
          "name": "to",
          "type": "address"
        },
        {
          "internalType": "uint256",
          "name": "tokenId",
          "type": "uint256"
        }
      ],
      "name": "approve",
      "outputs": [],
      "stateMutability": "nonpayable",
      "type": "function"
    },
    {
      "inputs": [
        {
          "internalType": "address",
          "name": "owner",
          "type": "address"
        }
      ],
      "name": "balanceOf",
      "outputs": [
        {
          "internalType": "uint256",
          "name": "",
          "type": "uint256"
        }
      ],
      "stateMutability": "view",
      "type": "function",
      "constant": true
    },
    {
      "inputs": [],
      "name": "baseURI",
      "outputs": [
        {
          "internalType": "string",
          "name": "",
          "type": "string"
        }
      ],
      "stateMutability": "view",
      "type": "function",
      "constant": true
    },
    {
      "inputs": [
        {
          "internalType": "uint256",
          "name": "tokenId",
          "type": "uint256"
        }
      ],
      "name": "getApproved",
      "outputs": [
        {
          "internalType": "address",
          "name": "",
          "type": "address"
        }
      ],
      "stateMutability": "view",
      "type": "function",
      "constant": true
    },
    {
      "inputs": [
        {
          "internalType": "address",
          "name": "owner",
          "type": "address"
        },
        {
          "internalType": "address",
          "name": "operator",
          "type": "address"
        }
      ],
      "name": "isApprovedForAll",
      "outputs": [
        {
          "internalType": "bool",
          "name": "",
          "type": "bool"
        }
      ],
      "stateMutability": "view",
      "type": "function",
      "constant": true
    },
    {
      "inputs": [],
      "name": "isPaused",
      "outputs": [
        {
          "internalType": "bool",
          "name": "",
          "type": "bool"
        }
      ],
      "stateMutability": "view",
      "type": "function",
      "constant": true
    },
    {
      "inputs": [
        {
          "internalType": "address",
          "name": "to",
          "type": "address"
        },
        {
          "internalType": "uint256",
          "name": "tokenId",
          "type": "uint256"
        }
      ],
      "name": "mint",
      "outputs": [
        {
          "internalType": "bool",
          "name": "",
          "type": "bool"
        }
      ],
      "stateMutability": "nonpayable",
      "type": "function"
    },
    {
      "inputs": [],
      "name": "name",
      "outputs": [
        {
          "internalType": "string",
          "name": "",
          "type": "string"
        }
      ],
      "stateMutability": "view",
      "type": "function",
      "constant": true
    },
    {
      "inputs": [],
      "name": "owner",
      "outputs": [
        {
          "internalType": "address",
          "name": "",
          "type": "address"
        }
      ],
      "stateMutability": "view",
      "type": "function",
      "constant": true
    },
    {
      "inputs": [
        {
          "internalType": "uint256",
          "name": "tokenId",
          "type": "uint256"
        }
      ],
      "name": "ownerOf",
      "outputs": [
        {
          "internalType": "address",
          "name": "",
          "type": "address"
        }
      ],
      "stateMutability": "view",
      "type": "function",
      "constant": true
    },
    {
      "inputs": [],
      "name": "pause",
      "outputs": [],
      "stateMutability": "nonpayable",
      "type": "function"
    },
    {
      "inputs": [],
      "name": "renounceOwnership",
      "outputs": [],
      "stateMutability": "nonpayable",
      "type": "function"
    },
    {
      "inputs": [
        {
          "internalType": "address",
          "name": "from",
          "type": "address"
        },
        {
          "internalType": "address",
          "name": "to",
          "type": "address"
        },
        {
          "internalType": "uint256",
          "name": "tokenId",
          "type": "uint256"
        }
      ],
      "name": "safeTransferFrom",
      "outputs": [],
      "stateMutability": "nonpayable",
      "type": "function"
    },
    {
      "inputs": [
        {
          "internalType": "address",
          "name": "from",
          "type": "address"
        },
        {
          "internalType": "address",
          "name": "to",
          "type": "address"
        },
        {
          "internalType": "uint256",
          "name": "tokenId",
          "type": "uint256"
        },
        {
          "internalType": "bytes",
          "name": "_data",
          "type": "bytes"
        }
      ],
      "name": "safeTransferFrom",
      "outputs": [],
      "stateMutability": "nonpayable",
      "type": "function"
    },
    {
      "inputs": [
        {
          "internalType": "address",
          "name": "to",
          "type": "address"
        },
        {
          "internalType": "bool",
          "name": "approved",
          "type": "bool"
        }
      ],
      "name": "setApprovalForAll",
      "outputs": [],
      "stateMutability": "nonpayable",
      "type": "function"
    },
    {
      "inputs": [
        {
          "internalType": "bytes4",
          "name": "interfaceId",
          "type": "bytes4"
        }
      ],
      "name": "supportsInterface",
      "outputs": [
        {
          "internalType": "bool",
          "name": "",
          "type": "bool"
        }
      ],
      "stateMutability": "view",
      "type": "function",
      "constant": true
    },
    {
      "inputs": [],
      "name": "symbol",
      "outputs": [
        {
          "internalType": "string",
          "name": "",
          "type": "string"
        }
      ],
      "stateMutability": "view",
      "type": "function",
      "constant": true
    },
    {
      "inputs": [
        {
          "internalType": "uint256",
          "name": "index",
          "type": "uint256"
        }
      ],
      "name": "tokenByIndex",
      "outputs": [
        {
          "internalType": "uint256",
          "name": "",
          "type": "uint256"
        }
      ],
      "stateMutability": "view",
      "type": "function",
      "constant": true
    },
    {
      "inputs": [
        {
          "internalType": "address",
          "name": "owner",
          "type": "address"
        },
        {
          "internalType": "uint256",
          "name": "index",
          "type": "uint256"
        }
      ],
      "name": "tokenOfOwnerByIndex",
      "outputs": [
        {
          "internalType": "uint256",
          "name": "",
          "type": "uint256"
        }
      ],
      "stateMutability": "view",
      "type": "function",
      "constant": true
    },
    {
      "inputs": [
        {
          "internalType": "uint256",
          "name": "tokenId",
          "type": "uint256"
        }
      ],
      "name": "tokenURI",
      "outputs": [
        {
          "internalType": "string",
          "name": "",
          "type": "string"
        }
      ],
      "stateMutability": "view",
      "type": "function",
      "constant": true
    },
    {
      "inputs": [],
      "name": "totalSupply",
      "outputs": [
        {
          "internalType": "uint256",
          "name": "",
          "type": "uint256"
        }
      ],
      "stateMutability": "view",
      "type": "function",
      "constant": true
    },
    {
      "inputs": [
        {
          "internalType": "address",
          "name": "from",
          "type": "address"
        },
        {
          "internalType": "address",
          "name": "to",
          "type": "address"
        },
        {
          "internalType": "uint256",
          "name": "tokenId",
          "type": "uint256"
        }
      ],
      "name": "transferFrom",
      "outputs": [],
      "stateMutability": "nonpayable",
      "type": "function"
    },
    {
      "inputs": [
        {
          "internalType": "address",
          "name": "newOwner",
          "type": "address"
        }
      ],
      "name": "transferOwnership",
      "outputs": [],
      "stateMutability": "nonpayable",
      "type": "function"
    },
    {
      "inputs": [],
      "name": "unpause",
      "outputs": [],
      "stateMutability": "nonpayable",
      "type": "function"
    },
    {
      "inputs": [
        {
          "internalType": "address",
          "name": "_addr",
          "type": "address"
        },
        {
          "internalType": "uint256",
          "name": "tokenId",
          "type": "uint256"
        }
      ],
      "name": "addSolution",
      "outputs": [],
      "stateMutability": "nonpayable",
      "type": "function"
    },
    {
      "inputs": [
        {
          "internalType": "uint256",
          "name": "tokenId",
          "type": "uint256"
        },
        {
          "components": [
            {
              "components": [
                {
                  "internalType": "uint256",
                  "name": "X",
                  "type": "uint256"
                },
                {
                  "internalType": "uint256",
                  "name": "Y",
                  "type": "uint256"
                }
              ],
              "internalType": "struct Pairing.G1Point",
              "name": "a",
              "type": "tuple"
            },
            {
              "components": [
                {
                  "internalType": "uint256[2]",
                  "name": "X",
                  "type": "uint256[2]"
                },
                {
                  "internalType": "uint256[2]",
                  "name": "Y",
                  "type": "uint256[2]"
                }
              ],
              "internalType": "struct Pairing.G2Point",
              "name": "b",
              "type": "tuple"
            },
            {
              "components": [
                {
                  "internalType": "uint256",
                  "name": "X",
                  "type": "uint256"
                },
                {
                  "internalType": "uint256",
                  "name": "Y",
                  "type": "uint256"
                }
              ],
              "internalType": "struct Pairing.G1Point",
              "name": "c",
              "type": "tuple"
            }
          ],
          "internalType": "struct IZokratesVerifier.Proof",
          "name": "proof",
          "type": "tuple"
        },
        {
          "internalType": "uint256[2]",
          "name": "input",
          "type": "uint256[2]"
        }
      ],
      "name": "mintNFT",
      "outputs": [],
      "stateMutability": "nonpayable",
      "type": "function"
    }
  ],
  "bytecode": "0x608060405260008060146101000a81548160ff0219169083151502179055503480156200002b57600080fd5b5060405162003c4338038062003c43833981810160405281019062000051919062000420565b6040518060400160405280601481526020017f556461636974795265616c53746174654974656d0000000000000000000000008152506040518060400160405280600481526020017f55525349000000000000000000000000000000000000000000000000000000008152506040518060600160405280603f815260200162003c04603f9139620000f7620000eb620001ed60201b60201c565b620001f560201b60201c565b6200010f6301ffc9a760e01b620002b960201b60201c565b620001276380ac58cd60e01b620002b960201b60201c565b6200013f63780e9d6360e01b620002b960201b60201c565b82600a90805190602001906200015792919062000359565b5081600b90805190602001906200017092919062000359565b5080600c90805190602001906200018992919062000359565b50620001a2635b5e139f60e01b620002b960201b60201c565b50505080601060006101000a81548173ffffffffffffffffffffffffffffffffffffffff021916908373ffffffffffffffffffffffffffffffffffffffff16021790555050620004ff565b600033905090565b60008060009054906101000a900473ffffffffffffffffffffffffffffffffffffffff169050816000806101000a81548173ffffffffffffffffffffffffffffffffffffffff021916908373ffffffffffffffffffffffffffffffffffffffff1602179055508173ffffffffffffffffffffffffffffffffffffffff168173ffffffffffffffffffffffffffffffffffffffff167f8be0079c531659141344cd1fd0a4f28419497f9722a3daafe3b4186f6b6457e060405160405180910390a35050565b63ffffffff60e01b817bffffffffffffffffffffffffffffffffffffffffffffffffffffffff19161415620002ed57600080fd5b6001806000837bffffffffffffffffffffffffffffffffffffffffffffffffffffffff19167bffffffffffffffffffffffffffffffffffffffffffffffffffffffff1916815260200190815260200160002060006101000a81548160ff02191690831515021790555050565b828054620003679062000480565b90600052602060002090601f0160209004810192826200038b5760008555620003d7565b82601f10620003a657805160ff1916838001178555620003d7565b82800160010185558215620003d7579182015b82811115620003d6578251825591602001919060010190620003b9565b5b509050620003e69190620003ea565b5090565b5b8082111562000405576000816000905550600101620003eb565b5090565b6000815190506200041a81620004e5565b92915050565b6000602082840312156200043357600080fd5b6000620004438482850162000409565b91505092915050565b6000620004598262000460565b9050919050565b600073ffffffffffffffffffffffffffffffffffffffff82169050919050565b600060028204905060018216806200049957607f821691505b60208210811415620004b057620004af620004b6565b5b50919050565b7f4e487b7100000000000000000000000000000000000000000000000000000000600052602260045260246000fd5b620004f0816200044c565b8114620004fc57600080fd5b50565b6136f5806200050f6000396000f3fe608060405234801561001057600080fd5b506004361061018e5760003560e01c80636352211e116100de57806395d89b4111610097578063b88d4fde11610071578063b88d4fde1461045d578063c87b56dd14610479578063e985e9c5146104a9578063f2fde38b146104d95761018e565b806395d89b4114610405578063a22cb46514610423578063b187bd261461043f5761018e565b80636352211e146103555780636c0360eb1461038557806370a08231146103a3578063715018a6146103d35780638456cb59146103dd5780638da5cb5b146103e75761018e565b806324ba2bde1161014b5780633f4ba83a116101255780633f4ba83a146102cf57806340c10f19146102d957806342842e0e146103095780634f6ccce7146103255761018e565b806324ba2bde146102675780632f745c59146102835780633645a170146102b35761018e565b806301ffc9a71461019357806306fdde03146101c3578063081812fc146101e1578063095ea7b31461021157806318160ddd1461022d57806323b872dd1461024b575b600080fd5b6101ad60048036038101906101a8919061268c565b6104f5565b6040516101ba9190612ff4565b60405180910390f35b6101cb61055d565b6040516101d8919061300f565b60405180910390f35b6101fb60048036038101906101f691906126de565b6105ef565b6040516102089190612f64565b60405180910390f35b61022b60048036038101906102269190612627565b610674565b005b610235610829565b604051610242919061325c565b60405180910390f35b61026560048036038101906102609190612521565b610836565b005b610281600480360381019061027c9190612707565b610859565b005b61029d60048036038101906102989190612627565b610a03565b6040516102aa919061325c565b60405180910390f35b6102cd60048036038101906102c89190612627565b610aa3565b005b6102d7610c1b565b005b6102f360048036038101906102ee9190612627565b610cf8565b6040516103009190612ff4565b60405180910390f35b610323600480360381019061031e9190612521565b610d8a565b005b61033f600480360381019061033a91906126de565b610daa565b60405161034c919061325c565b60405180910390f35b61036f600480360381019061036a91906126de565b610e0b565b60405161037c9190612f64565b60405180910390f35b61038d610ebd565b60405161039a919061300f565b60405180910390f35b6103bd60048036038101906103b891906124bc565b610f4f565b6040516103ca919061325c565b60405180910390f35b6103db61100e565b005b6103e5611096565b005b6103ef6111ab565b6040516103fc9190612f64565b60405180910390f35b61040d6111d4565b60405161041a919061300f565b60405180910390f35b61043d600480360381019061043891906125eb565b611266565b005b61044761139c565b6040516104549190612ff4565b60405180910390f35b61047760048036038101906104729190612570565b6113b2565b005b610493600480360381019061048e91906126de565b6113d8565b6040516104a0919061300f565b60405180910390f35b6104c360048036038101906104be91906124e5565b61147f565b6040516104d09190612ff4565b60405180910390f35b6104f360048036038101906104ee91906124bc565b611513565b005b600060016000837bffffffffffffffffffffffffffffffffffffffffffffffffffffffff19167bffffffffffffffffffffffffffffffffffffffffffffffffffffffff1916815260200190815260200160002060009054906101000a900460ff169050919050565b6060600a805461056c906134ea565b80601f0160208091040260200160405190810160405280929190818152602001828054610598906134ea565b80156105e55780601f106105ba576101008083540402835291602001916105e5565b820191906000526020600020905b8154815290600101906020018083116105c857829003601f168201915b5050505050905090565b60006105fa8261160b565b610639576040517f08c379a0000000000000000000000000000000000000000000000000000000008152600401610630906131b1565b60405180910390fd5b6003600083815260200190815260200160002060009054906101000a900473ffffffffffffffffffffffffffffffffffffffff169050919050565b600061067f82610e0b565b90508073ffffffffffffffffffffffffffffffffffffffff168373ffffffffffffffffffffffffffffffffffffffff1614156106f0576040517f08c379a00000000000000000000000000000000000000000000000000000000081526004016106e790613211565b60405180910390fd5b8073ffffffffffffffffffffffffffffffffffffffff163373ffffffffffffffffffffffffffffffffffffffff161480610730575061072f813361147f565b5b61076f576040517f08c379a000000000000000000000000000000000000000000000000000000000815260040161076690613111565b60405180910390fd5b826003600084815260200190815260200160002060006101000a81548173ffffffffffffffffffffffffffffffffffffffff021916908373ffffffffffffffffffffffffffffffffffffffff160217905550818373ffffffffffffffffffffffffffffffffffffffff166107e284610e0b565b73ffffffffffffffffffffffffffffffffffffffff167f8c5be1e5ebec7d5bd14f71427d1e84f3dd0314c0f7b2291e5b200ac8c7c3b92560405160405180910390a4505050565b6000600880549050905090565b610840338261167d565b61084957600080fd5b610854838383611712565b505050565b600073ffffffffffffffffffffffffffffffffffffffff16600f600085815260200190815260200160002060000160009054906101000a900473ffffffffffffffffffffffffffffffffffffffff1673ffffffffffffffffffffffffffffffffffffffff16146108fe576040517f08c379a00000000000000000000000000000000000000000000000000000000081526004016108f5906130d1565b60405180910390fd5b601060009054906101000a900473ffffffffffffffffffffffffffffffffffffffff1673ffffffffffffffffffffffffffffffffffffffff166343cd76fc83836040518363ffffffff1660e01b815260040161095b929190613231565b60206040518083038186803b15801561097357600080fd5b505afa158015610987573d6000803e3d6000fd5b505050506040513d601f19601f820116820180604052508101906109ab9190612663565b6109ea576040517f08c379a00000000000000000000000000000000000000000000000000000000081526004016109e1906130f1565b60405180910390fd5b6109f43384610aa3565b6109fe3384611736565b505050565b6000610a0e83610f4f565b8210610a1957600080fd5b600660008473ffffffffffffffffffffffffffffffffffffffff1673ffffffffffffffffffffffffffffffffffffffff1681526020019081526020016000208281548110610a90577f4e487b7100000000000000000000000000000000000000000000000000000000600052603260045260246000fd5b9060005260206000200154905092915050565b600e60405180604001604052808473ffffffffffffffffffffffffffffffffffffffff16815260200183815250908060018154018082558091505060019003906000526020600020906002020160009091909190915060008201518160000160006101000a81548173ffffffffffffffffffffffffffffffffffffffff021916908373ffffffffffffffffffffffffffffffffffffffff16021790555060208201518160010155505060405180604001604052808373ffffffffffffffffffffffffffffffffffffffff16815260200182815250600f600083815260200190815260200160002060008201518160000160006101000a81548173ffffffffffffffffffffffffffffffffffffffff021916908373ffffffffffffffffffffffffffffffffffffffff160217905550602082015181600101559050507f3a01cc868bdb36c1d9b8a262a8ad25064b23ac175b3f8e4453f1daf8ff6bac0d8282604051610c0f929190612fcb565b60405180910390a15050565b610c23611757565b73ffffffffffffffffffffffffffffffffffffffff16610c416111ab565b73ffffffffffffffffffffffffffffffffffffffff1614610c97576040517f08c379a0000000000000000000000000000000000000000000000000000000008152600401610c8e906131d1565b60405180910390fd5b600060149054906101000a900460ff16610cb057600080fd5b60008060146101000a81548160ff0219169083151502179055507fa45f47fdea8a1efdd9029a5691c7f759c32b7c698632b563573e155625d1693360405160405180910390a1565b6000610d02611757565b73ffffffffffffffffffffffffffffffffffffffff16610d206111ab565b73ffffffffffffffffffffffffffffffffffffffff1614610d76576040517f08c379a0000000000000000000000000000000000000000000000000000000008152600401610d6d906131d1565b60405180910390fd5b610d808383611736565b6001905092915050565b610da5838383604051806020016040528060008152506113b2565b505050565b6000610db4610829565b8210610dbf57600080fd5b60088281548110610df9577f4e487b7100000000000000000000000000000000000000000000000000000000600052603260045260246000fd5b90600052602060002001549050919050565b6000806002600084815260200190815260200160002060009054906101000a900473ffffffffffffffffffffffffffffffffffffffff169050600073ffffffffffffffffffffffffffffffffffffffff168173ffffffffffffffffffffffffffffffffffffffff161415610eb4576040517f08c379a0000000000000000000000000000000000000000000000000000000008152600401610eab90613151565b60405180910390fd5b80915050919050565b6060600c8054610ecc906134ea565b80601f0160208091040260200160405190810160405280929190818152602001828054610ef8906134ea565b8015610f455780601f10610f1a57610100808354040283529160200191610f45565b820191906000526020600020905b815481529060010190602001808311610f2857829003601f168201915b5050505050905090565b60008073ffffffffffffffffffffffffffffffffffffffff168273ffffffffffffffffffffffffffffffffffffffff161415610fc0576040517f08c379a0000000000000000000000000000000000000000000000000000000008152600401610fb790613131565b60405180910390fd5b611007600460008473ffffffffffffffffffffffffffffffffffffffff1673ffffffffffffffffffffffffffffffffffffffff16815260200190815260200160002061175f565b9050919050565b611016611757565b73ffffffffffffffffffffffffffffffffffffffff166110346111ab565b73ffffffffffffffffffffffffffffffffffffffff161461108a576040517f08c379a0000000000000000000000000000000000000000000000000000000008152600401611081906131d1565b60405180910390fd5b611094600061176d565b565b61109e611757565b73ffffffffffffffffffffffffffffffffffffffff166110bc6111ab565b73ffffffffffffffffffffffffffffffffffffffff1614611112576040517f08c379a0000000000000000000000000000000000000000000000000000000008152600401611109906131d1565b60405180910390fd5b600060149054906101000a900460ff1615611162576040517f08c379a000000000000000000000000000000000000000000000000000000000815260040161115990613171565b60405180910390fd5b6001600060146101000a81548160ff0219169083151502179055507f9e87fac88ff661f02d44f95383c817fece4bce600a3dab7a54406878b965e75260405160405180910390a1565b60008060009054906101000a900473ffffffffffffffffffffffffffffffffffffffff16905090565b6060600b80546111e3906134ea565b80601f016020809104026020016040519081016040528092919081815260200182805461120f906134ea565b801561125c5780601f106112315761010080835404028352916020019161125c565b820191906000526020600020905b81548152906001019060200180831161123f57829003601f168201915b5050505050905090565b3373ffffffffffffffffffffffffffffffffffffffff168273ffffffffffffffffffffffffffffffffffffffff16141561129f57600080fd5b80600560003373ffffffffffffffffffffffffffffffffffffffff1673ffffffffffffffffffffffffffffffffffffffff16815260200190815260200160002060008473ffffffffffffffffffffffffffffffffffffffff1673ffffffffffffffffffffffffffffffffffffffff16815260200190815260200160002060006101000a81548160ff0219169083151502179055508173ffffffffffffffffffffffffffffffffffffffff163373ffffffffffffffffffffffffffffffffffffffff167f17307eab39ab6107e8899845ad3d59bd9653f200f220920489ca2b5937696c31836040516113909190612ff4565b60405180910390a35050565b60008060149054906101000a900460ff16905090565b6113bd848484610836565b6113c984848484611831565b6113d257600080fd5b50505050565b60606113e38261160b565b611422576040517f08c379a0000000000000000000000000000000000000000000000000000000008152600401611419906131f1565b60405180910390fd5b600061142c610ebd565b9050600081511161144c5760405180602001604052806000815250611477565b8061145684611948565b604051602001611467929190612f40565b6040516020818303038152906040525b915050919050565b6000600560008473ffffffffffffffffffffffffffffffffffffffff1673ffffffffffffffffffffffffffffffffffffffff16815260200190815260200160002060008373ffffffffffffffffffffffffffffffffffffffff1673ffffffffffffffffffffffffffffffffffffffff16815260200190815260200160002060009054906101000a900460ff16905092915050565b61151b611757565b73ffffffffffffffffffffffffffffffffffffffff166115396111ab565b73ffffffffffffffffffffffffffffffffffffffff161461158f576040517f08c379a0000000000000000000000000000000000000000000000000000000008152600401611586906131d1565b60405180910390fd5b600073ffffffffffffffffffffffffffffffffffffffff168173ffffffffffffffffffffffffffffffffffffffff1614156115ff576040517f08c379a00000000000000000000000000000000000000000000000000000000081526004016115f690613051565b60405180910390fd5b6116088161176d565b50565b6000806002600084815260200190815260200160002060009054906101000a900473ffffffffffffffffffffffffffffffffffffffff169050600073ffffffffffffffffffffffffffffffffffffffff168173ffffffffffffffffffffffffffffffffffffffff161415915050919050565b60008061168983610e0b565b90508073ffffffffffffffffffffffffffffffffffffffff168473ffffffffffffffffffffffffffffffffffffffff1614806116f857508373ffffffffffffffffffffffffffffffffffffffff166116e0846105ef565b73ffffffffffffffffffffffffffffffffffffffff16145b806117095750611708818561147f565b5b91505092915050565b61171d838383611af5565b6117278382611d26565b6117318282611f0f565b505050565b6117408282611fd3565b61174a8282611f0f565b61175381612185565b5050565b600033905090565b600081600001549050919050565b60008060009054906101000a900473ffffffffffffffffffffffffffffffffffffffff169050816000806101000a81548173ffffffffffffffffffffffffffffffffffffffff021916908373ffffffffffffffffffffffffffffffffffffffff1602179055508173ffffffffffffffffffffffffffffffffffffffff168173ffffffffffffffffffffffffffffffffffffffff167f8be0079c531659141344cd1fd0a4f28419497f9722a3daafe3b4186f6b6457e060405160405180910390a35050565b60006118528473ffffffffffffffffffffffffffffffffffffffff166121ce565b61185f5760019050611940565b60008473ffffffffffffffffffffffffffffffffffffffff1663150b7a02338887876040518563ffffffff1660e01b81526004016118a09493929190612f7f565b602060405180830381600087803b1580156118ba57600080fd5b505af11580156118ce573d6000803e3d6000fd5b505050506040513d601f19601f820116820180604052508101906118f291906126b5565b905063150b7a0260e01b7bffffffffffffffffffffffffffffffffffffffffffffffffffffffff1916817bffffffffffffffffffffffffffffffffffffffffffffffffffffffff1916149150505b949350505050565b60606000821415611990576040518060400160405280600181526020017f30000000000000000000000000000000000000000000000000000000000000008152509050611af0565b600082905060005b600082146119c25780806119ab9061351c565b915050600a826119bb91906133cf565b9150611998565b60008167ffffffffffffffff811115611a04577f4e487b7100000000000000000000000000000000000000000000000000000000600052604160045260246000fd5b6040519080825280601f01601f191660200182016040528015611a365781602001600182028036833780820191505090505b5090505b60008514611ae957600182611a4f9190613400565b9150600a85611a5e9190613565565b6030611a6a9190613379565b60f81b818381518110611aa6577f4e487b7100000000000000000000000000000000000000000000000000000000600052603260045260246000fd5b60200101907effffffffffffffffffffffffffffffffffffffffffffffffffffffffffffff1916908160001a905350600a85611ae291906133cf565b9450611a3a565b8093505050505b919050565b8273ffffffffffffffffffffffffffffffffffffffff16611b1582610e0b565b73ffffffffffffffffffffffffffffffffffffffff1614611b6b576040517f08c379a0000000000000000000000000000000000000000000000000000000008152600401611b6290613071565b60405180910390fd5b600073ffffffffffffffffffffffffffffffffffffffff168273ffffffffffffffffffffffffffffffffffffffff161415611bdb576040517f08c379a0000000000000000000000000000000000000000000000000000000008152600401611bd2906130b1565b60405180910390fd5b611be6600082610674565b611c2d600460008573ffffffffffffffffffffffffffffffffffffffff1673ffffffffffffffffffffffffffffffffffffffff1681526020019081526020016000206121e1565b611c74600460008473ffffffffffffffffffffffffffffffffffffffff1673ffffffffffffffffffffffffffffffffffffffff16815260200190815260200160002061223d565b816002600083815260200190815260200160002060006101000a81548173ffffffffffffffffffffffffffffffffffffffff021916908373ffffffffffffffffffffffffffffffffffffffff160217905550808273ffffffffffffffffffffffffffffffffffffffff168473ffffffffffffffffffffffffffffffffffffffff167fddf252ad1be2c89b69c2b068fc378daa952ba7f163c4a11628f55a4df523b3ef60405160405180910390a4505050565b60006001611d3384610f4f565b611d3d9190613400565b9050600060076000848152602001908152602001600020549050818114611e84576000600660008673ffffffffffffffffffffffffffffffffffffffff1673ffffffffffffffffffffffffffffffffffffffff1681526020019081526020016000208381548110611dd7577f4e487b7100000000000000000000000000000000000000000000000000000000600052603260045260246000fd5b9060005260206000200154905080600660008773ffffffffffffffffffffffffffffffffffffffff1673ffffffffffffffffffffffffffffffffffffffff1681526020019081526020016000208381548110611e5c577f4e487b7100000000000000000000000000000000000000000000000000000000600052603260045260246000fd5b9060005260206000200181905550816007600083815260200190815260200160002081905550505b600660008573ffffffffffffffffffffffffffffffffffffffff1673ffffffffffffffffffffffffffffffffffffffff1681526020019081526020016000208281548110611efb577f4e487b7100000000000000000000000000000000000000000000000000000000600052603260045260246000fd5b906000526020600020016000905550505050565b600660008373ffffffffffffffffffffffffffffffffffffffff1673ffffffffffffffffffffffffffffffffffffffff168152602001908152602001600020805490506007600083815260200190815260200160002081905550600660008373ffffffffffffffffffffffffffffffffffffffff1673ffffffffffffffffffffffffffffffffffffffff1681526020019081526020016000208190806001815401808255809150506001900390600052602060002001600090919091909150555050565b600073ffffffffffffffffffffffffffffffffffffffff168273ffffffffffffffffffffffffffffffffffffffff161415612043576040517f08c379a000000000000000000000000000000000000000000000000000000000815260040161203a90613191565b60405180910390fd5b61204c8161160b565b1561208c576040517f08c379a000000000000000000000000000000000000000000000000000000000815260040161208390613091565b60405180910390fd5b6120d3600460008473ffffffffffffffffffffffffffffffffffffffff1673ffffffffffffffffffffffffffffffffffffffff16815260200190815260200160002061223d565b816002600083815260200190815260200160002060006101000a81548173ffffffffffffffffffffffffffffffffffffffff021916908373ffffffffffffffffffffffffffffffffffffffff160217905550808273ffffffffffffffffffffffffffffffffffffffff16600073ffffffffffffffffffffffffffffffffffffffff167fddf252ad1be2c89b69c2b068fc378daa952ba7f163c4a11628f55a4df523b3ef60405160405180910390a45050565b6008805490506009600083815260200190815260200160002081905550600881908060018154018082558091505060019003906000526020600020016000909190919091505550565b600080823b905060008111915050919050565b6000816000015490506000811161222d576040517f08c379a000000000000000000000000000000000000000000000000000000000815260040161222490613031565b60405180910390fd5b6001810382600001819055505050565b6001816000016000828254019250508190555050565b6000612266612261846132a8565b613277565b9050808285602086028201111561227c57600080fd5b60005b858110156122ac578161229288826124a7565b84526020840193506020830192505060018101905061227f565b5050509392505050565b60006122c96122c4846132ce565b613277565b9050828152602081018484840111156122e157600080fd5b6122ec8482856134a8565b509392505050565b60008135905061230381613663565b92915050565b600082601f83011261231a57600080fd5b6002612327848285612253565b91505092915050565b60008135905061233f8161367a565b92915050565b6000815190506123548161367a565b92915050565b60008135905061236981613691565b92915050565b60008151905061237e81613691565b92915050565b600082601f83011261239557600080fd5b81356123a58482602086016122b6565b91505092915050565b6000604082840312156123c057600080fd5b6123ca6040613277565b905060006123da848285016124a7565b60008301525060206123ee848285016124a7565b60208301525092915050565b60006080828403121561240c57600080fd5b6124166040613277565b9050600061242684828501612309565b600083015250604061243a84828501612309565b60208301525092915050565b6000610100828403121561245957600080fd5b6124636060613277565b90506000612473848285016123ae565b6000830152506040612487848285016123fa565b60208301525060c061249b848285016123ae565b60408301525092915050565b6000813590506124b6816136a8565b92915050565b6000602082840312156124ce57600080fd5b60006124dc848285016122f4565b91505092915050565b600080604083850312156124f857600080fd5b6000612506858286016122f4565b9250506020612517858286016122f4565b9150509250929050565b60008060006060848603121561253657600080fd5b6000612544868287016122f4565b9350506020612555868287016122f4565b9250506040612566868287016124a7565b9150509250925092565b6000806000806080858703121561258657600080fd5b6000612594878288016122f4565b94505060206125a5878288016122f4565b93505060406125b6878288016124a7565b925050606085013567ffffffffffffffff8111156125d357600080fd5b6125df87828801612384565b91505092959194509250565b600080604083850312156125fe57600080fd5b600061260c858286016122f4565b925050602061261d85828601612330565b9150509250929050565b6000806040838503121561263a57600080fd5b6000612648858286016122f4565b9250506020612659858286016124a7565b9150509250929050565b60006020828403121561267557600080fd5b600061268384828501612345565b91505092915050565b60006020828403121561269e57600080fd5b60006126ac8482850161235a565b91505092915050565b6000602082840312156126c757600080fd5b60006126d58482850161236f565b91505092915050565b6000602082840312156126f057600080fd5b60006126fe848285016124a7565b91505092915050565b6000806000610160848603121561271d57600080fd5b600061272b868287016124a7565b935050602061273c86828701612446565b92505061012061274e86828701612309565b9150509250925092565b60006127648383612f22565b60208301905092915050565b61277981613434565b82525050565b61278881613308565b6127928184613336565b925061279d826132fe565b8060005b838110156127ce5781516127b58782612758565b96506127c083613329565b9250506001810190506127a1565b505050505050565b6127df81613308565b6127e98184613341565b92506127f4826132fe565b8060005b8381101561282557815161280c8782612758565b965061281783613329565b9250506001810190506127f8565b505050505050565b61283681613446565b82525050565b600061284782613313565b612851818561334c565b93506128618185602086016134b7565b61286a81613652565b840191505092915050565b60006128808261331e565b61288a818561335d565b935061289a8185602086016134b7565b6128a381613652565b840191505092915050565b60006128b98261331e565b6128c3818561336e565b93506128d38185602086016134b7565b80840191505092915050565b60006128ec601b8361335d565b91507f436f756e7465723a2064656372656d656e74206f766572666c6f7700000000006000830152602082019050919050565b600061292c60268361335d565b91507f4f776e61626c653a206e6577206f776e657220697320746865207a65726f206160008301527f64647265737300000000000000000000000000000000000000000000000000006020830152604082019050919050565b600061299260258361335d565b91507f4552433732313a207472616e736665722066726f6d20696e636f72726563742060008301527f6f776e65720000000000000000000000000000000000000000000000000000006020830152604082019050919050565b60006129f8601c8361335d565b91507f4552433732313a20746f6b656e20616c7265616479206d696e746564000000006000830152602082019050919050565b6000612a3860248361335d565b91507f4552433732313a207472616e7366657220746f20746865207a65726f2061646460008301527f72657373000000000000000000000000000000000000000000000000000000006020830152604082019050919050565b6000612a9e60178361335d565b91507f536f6c7574696f6e206973206e6f7420756e697175652e0000000000000000006000830152602082019050919050565b6000612ade60288361335d565b91507f5665726669636174696f6e204661696c65642e2043616e74206d696e74206e6560008301527f7720746f6b656e2e0000000000000000000000000000000000000000000000006020830152604082019050919050565b6000612b4460388361335d565b91507f4552433732313a20617070726f76652063616c6c6572206973206e6f74206f7760008301527f6e6572206e6f7220617070726f76656420666f7220616c6c00000000000000006020830152604082019050919050565b6000612baa602a8361335d565b91507f4552433732313a2062616c616e636520717565727920666f7220746865207a6560008301527f726f2061646472657373000000000000000000000000000000000000000000006020830152604082019050919050565b6000612c1060298361335d565b91507f4552433732313a206f776e657220717565727920666f72206e6f6e657869737460008301527f656e7420746f6b656e00000000000000000000000000000000000000000000006020830152604082019050919050565b6000612c7660228361335d565b91507f43616e27742075736520636f6e7472616374206173206974277320706175736560008301527f642e0000000000000000000000000000000000000000000000000000000000006020830152604082019050919050565b6000612cdc60208361335d565b91507f4552433732313a206d696e7420746f20746865207a65726f20616464726573736000830152602082019050919050565b6000612d1c602c8361335d565b91507f4552433732313a20617070726f76656420717565727920666f72206e6f6e657860008301527f697374656e7420746f6b656e00000000000000000000000000000000000000006020830152604082019050919050565b6000612d8260208361335d565b91507f4f776e61626c653a2063616c6c6572206973206e6f7420746865206f776e65726000830152602082019050919050565b6000612dc2602f8361335d565b91507f4552433732314d657461646174613a2055524920717565727920666f72206e6f60008301527f6e6578697374656e7420746f6b656e00000000000000000000000000000000006020830152604082019050919050565b6000612e2860218361335d565b91507f4552433732313a20617070726f76616c20746f2063757272656e74206f776e6560008301527f72000000000000000000000000000000000000000000000000000000000000006020830152604082019050919050565b604082016000820151612e976000850182612f22565b506020820151612eaa6020850182612f22565b50505050565b608082016000820151612ec6600085018261277f565b506020820151612ed9604085018261277f565b50505050565b61010082016000820151612ef66000850182612e81565b506020820151612f096040850182612eb0565b506040820151612f1c60c0850182612e81565b50505050565b612f2b8161349e565b82525050565b612f3a8161349e565b82525050565b6000612f4c82856128ae565b9150612f5882846128ae565b91508190509392505050565b6000602082019050612f796000830184612770565b92915050565b6000608082019050612f946000830187612770565b612fa16020830186612770565b612fae6040830185612f31565b8181036060830152612fc0818461283c565b905095945050505050565b6000604082019050612fe06000830185612770565b612fed6020830184612f31565b9392505050565b6000602082019050613009600083018461282d565b92915050565b600060208201905081810360008301526130298184612875565b905092915050565b6000602082019050818103600083015261304a816128df565b9050919050565b6000602082019050818103600083015261306a8161291f565b9050919050565b6000602082019050818103600083015261308a81612985565b9050919050565b600060208201905081810360008301526130aa816129eb565b9050919050565b600060208201905081810360008301526130ca81612a2b565b9050919050565b600060208201905081810360008301526130ea81612a91565b9050919050565b6000602082019050818103600083015261310a81612ad1565b9050919050565b6000602082019050818103600083015261312a81612b37565b9050919050565b6000602082019050818103600083015261314a81612b9d565b9050919050565b6000602082019050818103600083015261316a81612c03565b9050919050565b6000602082019050818103600083015261318a81612c69565b9050919050565b600060208201905081810360008301526131aa81612ccf565b9050919050565b600060208201905081810360008301526131ca81612d0f565b9050919050565b600060208201905081810360008301526131ea81612d75565b9050919050565b6000602082019050818103600083015261320a81612db5565b9050919050565b6000602082019050818103600083015261322a81612e1b565b9050919050565b6000610140820190506132476000830185612edf565b6132556101008301846127d6565b9392505050565b60006020820190506132716000830184612f31565b92915050565b6000604051905081810181811067ffffffffffffffff8211171561329e5761329d613623565b5b8060405250919050565b600067ffffffffffffffff8211156132c3576132c2613623565b5b602082029050919050565b600067ffffffffffffffff8211156132e9576132e8613623565b5b601f19601f8301169050602081019050919050565b6000819050919050565b600060029050919050565b600081519050919050565b600081519050919050565b6000602082019050919050565b600081905092915050565b600081905092915050565b600082825260208201905092915050565b600082825260208201905092915050565b600081905092915050565b60006133848261349e565b915061338f8361349e565b9250827fffffffffffffffffffffffffffffffffffffffffffffffffffffffffffffffff038211156133c4576133c3613596565b5b828201905092915050565b60006133da8261349e565b91506133e58361349e565b9250826133f5576133f46135c5565b5b828204905092915050565b600061340b8261349e565b91506134168361349e565b92508282101561342957613428613596565b5b828203905092915050565b600061343f8261347e565b9050919050565b60008115159050919050565b60007fffffffff0000000000000000000000000000000000000000000000000000000082169050919050565b600073ffffffffffffffffffffffffffffffffffffffff82169050919050565b6000819050919050565b82818337600083830152505050565b60005b838110156134d55780820151818401526020810190506134ba565b838111156134e4576000848401525b50505050565b6000600282049050600182168061350257607f821691505b60208210811415613516576135156135f4565b5b50919050565b60006135278261349e565b91507fffffffffffffffffffffffffffffffffffffffffffffffffffffffffffffffff82141561355a57613559613596565b5b600182019050919050565b60006135708261349e565b915061357b8361349e565b92508261358b5761358a6135c5565b5b828206905092915050565b7f4e487b7100000000000000000000000000000000000000000000000000000000600052601160045260246000fd5b7f4e487b7100000000000000000000000000000000000000000000000000000000600052601260045260246000fd5b7f4e487b7100000000000000000000000000000000000000000000000000000000600052602260045260246000fd5b7f4e487b7100000000000000000000000000000000000000000000000000000000600052604160045260246000fd5b6000601f19601f8301169050919050565b61366c81613434565b811461367757600080fd5b50565b61368381613446565b811461368e57600080fd5b50565b61369a81613452565b81146136a557600080fd5b50565b6136b18161349e565b81146136bc57600080fd5b5056fea2646970667358221220aedbbbf56a38c4027270b13b7abe39d6166d9e831e3642a8b8bb6c9032c1026164736f6c6343000800003368747470733a2f2f73332d75732d776573742d322e616d617a6f6e6177732e636f6d2f756461636974792d626c6f636b636861696e2f63617073746f6e652f",
  "immutableReferences": {},
  "source": "// SPDX-License-Identifier: UNLICENSED\npragma solidity ^0.8.0;\nimport \"./ERC721Mintable.sol\";\nimport \"./Verifier.sol\";\n\ninterface IZokratesVerifier {\n    struct Proof {\n        Pairing.G1Point a;\n        Pairing.G2Point b;\n        Pairing.G1Point c;\n    }\n\n    function verifyTx(Proof memory proof, uint256[2] memory input)\n        external\n        view\n        returns (bool r);\n}\n\ncontract SolnSquareVerifier is UdacityRealStateItem {\n    struct Solution {\n        address addr;\n        uint256 index;\n    }\n    Solution[] solutions;\n    //  define a mapping to store unique solutions submitted\n    mapping(uint256 => Solution) uniqueSolutions;\n\n    event SolutionAdded(address addr, uint256 index);\n\n    IZokratesVerifier verifier;\n\n    constructor(address contractAddress) {\n        verifier = IZokratesVerifier(contractAddress);\n    }\n\n    function addSolution(address _addr, uint256 tokenId) public {\n        solutions.push(Solution(_addr, tokenId));\n        uniqueSolutions[tokenId] = Solution(_addr, tokenId);\n\n        emit SolutionAdded(_addr, tokenId);\n    }\n\n    struct Proof {\n        uint256[2] a;\n        uint256[2][2] b;\n        uint256[2] c;\n    }\n\n    function mintNFT(\n        uint256 tokenId,\n        IZokratesVerifier.Proof memory proof,\n        uint256[2] memory input\n    ) public {\n        //  - make sure the solution is unique (has not been used before)\n        require(\n            uniqueSolutions[tokenId].addr == address(0),\n            \"Solution is not unique.\"\n        );\n        // mint new NFT only after the solution has been verified\n        require(\n            verifier.verifyTx(proof, input),\n            \"Verfication Failed. Cant mint new token.\"\n        );\n\n        addSolution(msg.sender, tokenId);\n        _mint(msg.sender, tokenId);\n    }\n}\n",
  "sourcePath": "/Users/josancamon19/Downloads/personal/Blockchain/Blockchain-Capstone/eth-contracts/contracts/SolnSquareVerifier.sol",
  "compiler": {
    "name": "solc",
    "version": "0.8.0+commit.c7dfd78e.Emscripten.clang"
  },
  "schemaVersion": "3.4.4",
  "updatedAt": "2022-01-03T15:11:32.459Z",
  "networkType": "ethereum",
  "devdoc": {
    "kind": "dev",
    "methods": {
      "isApprovedForAll(address,address)": {
        "details": "Tells whether an operator is approved by a given owner",
        "params": {
          "operator": "operator address which you want to query the approval of",
          "owner": "owner address which you want to query the approval of"
        },
        "returns": {
          "_0": "bool whether the given operator is approved by the given owner"
        }
      },
      "owner()": {
        "details": "Returns the address of the current owner."
      },
      "pause()": {
        "details": "called by the owner to pause, triggers stopped state*"
      },
      "renounceOwnership()": {
        "details": "Leaves the contract without owner. It will not be possible to call `onlyOwner` functions anymore. Can only be called by the current owner. NOTE: Renouncing ownership will leave the contract without an owner, thereby removing any functionality that is only available to the owner."
      },
      "setApprovalForAll(address,bool)": {
        "details": "Sets or unsets the approval of a given operator An operator is allowed to transfer all tokens of the sender on their behalf",
        "params": {
          "approved": "representing the status of the approval to be set",
          "to": "operator address to set the approval"
        }
      },
      "supportsInterface(bytes4)": {
        "details": "implement supportsInterface(bytes4) using a lookup table"
      },
      "tokenByIndex(uint256)": {
        "details": "Gets the token ID at a given index of all the tokens in this contract Reverts if the index is greater or equal to the total number of tokens",
        "params": {
          "index": "uint256 representing the index to be accessed of the tokens list"
        },
        "returns": {
          "_0": "uint256 token ID at the given index of the tokens list"
        }
      },
      "tokenOfOwnerByIndex(address,uint256)": {
        "details": "Gets the token ID at a given index of the tokens list of the requested owner",
        "params": {
          "index": "uint256 representing the index to be accessed of the requested tokens list",
          "owner": "address owning the tokens list to be accessed"
        },
        "returns": {
          "_0": "uint256 token ID at the given index of the tokens list owned by the requested address"
        }
      },
      "totalSupply()": {
        "details": "Gets the total amount of tokens stored by the contract",
        "returns": {
          "_0": "uint256 representing the total amount of tokens"
        }
      },
      "transferOwnership(address)": {
        "details": "Transfers ownership of the contract to a new account (`newOwner`). Can only be called by the current owner."
      },
      "unpause()": {
        "details": "called by the owner to unpause, returns to normal state"
      }
    },
    "version": 1
  },
  "userdoc": {
    "kind": "user",
    "methods": {},
    "version": 1
  }
}